:02000004080AE8
:1000000000000A0828290A08000006000600050169
:080010000402E70500000000F6
:0400180078250A0835
:1000200009480A4908B5884205D0094A824202D0E7
:10003000121A02F05DFA0748074A0021121A02F06C
:1000400062FA064808BD00BF0000002094280A0894
:100050006C0000206C000020040600200406002034
:1000600070B500F093FD074B074C1E46E41AA40838
:100070000025A54204D056F8253098470135F8E709
:1000800070BD00BF54280A088C280A0800F012B876
:1000900008B500F01DF8BDE8084000F039BD00F0DB
:1000A0005DBB0078B0FA80F040097047012303700F
:1000B0007047000008B500F069FE4FF4165100F0DB
:1000C0004BFEBDE80840014800F06EB8700000200B
:1000D00038B54FF4FA6000F0C9FC00211C4800F06C
:1000E0005BF9002205461146194800F001F929463E
:1000F0000446284602F0D8F920B92146204602F0ED
:10010000D3F918B100F042FE12491DE000F03EFEA6
:10011000114900F08DFB00F039FE0222294600F063
:100120007DFC00F033FE0D4900F082FB00F02EFE56
:100130000B4900F07DFB00F029FE2146022200F071
:100140006DFC00F023FE0749BDE8384000F083BB9A
:10015000700000208C250A08AC250A08B7250A087B
:10016000BB250A08C9250A0810B500F049F9BDE801
:10017000104006230B220421014800F005B800BFFF
:100180007000002000F03CB98271054A417112688C
:100190000449B2FBF1F14FF47A724A43C2607047EE
:1001A0000400002040420F0010B5044602214079AF
:1001B00001F01CF8014BA36010BD00BF30F8FFFF39
:1001C00070B505460E460024687901F039F8B04252
:1001D00007D1EB68621C9C4201D21446F4E7002070
:1001E00070BD204670BD30B50D46D1B0044600F05C
:1001F0005FF935B9A368C31AB3F5FA6F01D2207C51
:1002000071E000250121A06025716079E570A5707D
:100210006570257000F0FBFFFA2000F027FC01213B
:10022000607900F0E3FF2946607900F0F0FF1420C8
:1002300000F01CFC00F00CFE0121607900F0E7FFEB
:10024000282000F02DF90221607900F0CFFF0A206C
:1002500000F026F929462046FFF7B2FF28B900250D
:10026000257400F0F7FD28463DE001212046FFF708
:10027000A7FF0028F3D000212046FFF7A1FF0121AE
:100280004DF805002046FFF79BFF0DEB05030835F1
:10029000B5F5A07F5860EED100F0DCFD00225DF8DE
:1002A00032500DEBC203586805B108B9002019E0BF
:1002B000D110635C85424FEA4303DBB202F10102D5
:1002C00038BF43F00103282A6354E8D122786378C9
:1002D00021791344A2781344E2781344DBB29942A3
:1002E000E4D10120207451B030BD000000000000B6
:1002F000F8B50D4611460446FFF775FF00283CD0BF
:10030000A3790B2B04D038D3153B012B06D934E04D
:10031000A07801F021FF034685B31FE0A67806F020
:100320007F0001F01DFF4FF0874101F06DFF074690
:10033000E07801F015FF394601F05EFE01F0BAFAEF
:100340000FA3D3E9002301F009FB01F0FFFD320602
:10035000034648BF00F1004385B1184601F0AAFAF0
:1003600009A3D3E9002301F0F9FA094B002201F0B7
:1003700043F901F0EBFD034600E0064B1846F8BDDB
:100380009A9999999999B93FCDCCCCCCCCCCFC3FDA
:10039000000040400000C07F38B500210446FFF750
:1003A00022FF10B3A3790B2B1BD01ED3153B012BBF
:1003B0001BD8207801F0D0FE4FF0874101F024FFD8
:1003C0000546607801F0CCFE294601F015FE01F0EB
:1003D00071FA07A3D3E9002301F0C0FA01F0B6FDDA
:1003E00038BD207801F0B8FE38BD034838BD00BFE5
:1003F0009A9999999999B93F0000C07F00F000B887
:1004000008B5024B1B681B68019308BDB0010608C4
:1004100008B5024B1B689B68019308BDB001060834
:1004200008B5024B1B68DB68019308BDB0010608E4
:1004300008B5024B1B681B69019308BDB001060893
:1004400008B5024B1B685B69019308BDB001060843
:1004500008B5024B1B681B6A019308BDB001060872
:1004600008B5024B1B685B6A019308BDB001060822
:1004700008B5024B1B68DB69019308BDB40106088F
:1004800008B5024B1B681B6A019308BDB40106083E
:1004900008B5024B1B685B68019308BD9C01060808
:1004A00008B5024B1B68DB68019308BD9C01060878
:1004B00008B5024B1B685B69019308BD9C010608E7
:1004C00008B5024B1B685B6C019308BDD0010608A0
:1004D00008B5024B1B689B6C019308BDD001060850
:1004E00008B5024B1B689B69019308BDC40106084F
:1004F00008B5024B1B685B6A019308BDC40106087E
:1005000008B5024B1B689B6A019308BDC40106082D
:1005100008B5024B1B68DB6A019308BDC4010608DD
:1005200008B5024B1B681B6B019308BDC40106088C
:1005300008B5024B1B685B6B019308BDC40106083C
:1005400008B5024B1B689B6B019308BDC4010608EC
:1005500008B5024B1B681B6C019308BDC40106085B
:1005600008B5024B1B681B6E019308BDAC01060861
:1005700008B5024B1B685B6E019308BDAC01060811
:1005800008B5024B1B689B6E019308BDAC010608C1
:1005900008B5024B1B68DB6E019308BDAC01060871
:1005A00008B5024B1B681B6F019308BDAC01060820
:1005B00008B5024B1B685B6F019308BDAC010608D0
:1005C00008B5034B1B68D3F88030019308BD0000C9
:1005D000AC01060808B5024B1B681B68019308BDF7
:1005E000D801060808B5024B1B685B68019308BD7B
:1005F000D801060808B5024B1B681B69019308BDAA
:10060000D801060808B5024B1B685B69019308BD59
:10061000D801060808B5024B1B689B69019308BD09
:10062000D801060808B5024B1B68DB69019308BDB9
:10063000D801060808B5024B1B681B6A019308BD68
:10064000D801060808B5024B1B689B6C019308BDD6
:10065000C001060808B5024B1B685B68019308BD22
:10066000A401060808B5024B1B685B69019308BD2D
:10067000A401060808B5034B1B68D3F8903001931A
:1006800008BD0000A401060808B5034B1B68D3F899
:100690009C30019308BD0000A401060808B5024B78
:1006A0001B685B68019308BDC801060808B5024BCA
:1006B0001B689B68019308BDC801060808B5024B7A
:1006C0001B68DB68019308BDC801060808B5024B2A
:1006D0001B681B69019308BDC801060808B5024BD9
:1006E0001B685B69019308BDC801060808B5024B89
:1006F0001B689B69019308BDC801060808B5024B39
:100700001B68DB69019308BDC801060808B5024BE8
:100710001B681B6A019308BDC801060808B5024B97
:100720001B681B6B019308BDC801060808B5024B86
:100730001B685B6B019308BDC801060808B5024B36
:100740001B68DB6B019308BDCC01060808B5024BA2
:100750001B681B68019308BDA001060808B5024B81
:100760001B685B68019308BDA001060870B50446CC
:100770000E46002540F8085FFFF7A2FE30462670BF
:10078000FFF776FE6560204670BD0078FFF778BE03
:1007900010B50446006818B1FFF7E0FF002323609E
:1007A00010BD10B50446FFF7F3FF204610BD000052
:1007B0004FF6FF7310B5084C00202060A080A07198
:1007C00020816381FFF746FF2046BDE81040034AC1
:1007D000034900F0A1BD00BF840000206C00002090
:1007E000A3070A08F8B506460D468F180024BD4237
:1007F0000CD0336815F8011B9B68304698470028D9
:1008000001DB0444F3E7002C08BF04462046F8BD92
:1008100070B505460C46084649B101F0A5FE2B68A7
:10082000024621462846BDE87040DB68184770BD87
:1008300008B5FFF7EDFF08BD03689B68184738B59A
:100840000D210546FFF7F8FF0A2104462846FFF769
:10085000F3FF204438BD38B50546FFF7D9FF0446FD
:100860002846FFF7ECFF204438BD012A98BF0A2232
:1008700030B50B468BB000218DF824100DF1230408
:10088000B3FBF2F505FB1233DBB2092B94BF303317
:100890003733DBB2214604F801392B46002DEFD166
:1008A000FFF7B6FF0BB030BD2DE9F0471946804683
:1008B000104617461E469DF8205001F0E9FA08B18F
:1008C0004D4912E026F000444FF0FF324B4B3846C2
:1008D000214601F0DDFA68B94FF0FF32474B384648
:1008E000214601F0B7FA28B945494046FFF790FF85
:1008F000BDE8F0874FF06042424B3846314601F088
:10090000BDFA08B14049F0E74FF060423F4B38462E
:10091000314601F095FA0028F4D100220023384630
:10092000314601F08DFA38B12D214046FFF784FFA2
:1009300006F10046044600E0044635494FF0000940
:1009400000205FFA89F39D4206D90022314B01F065
:100950002FF909F10109F4E73A46334600F04CFE5D
:100960000F46064601F0D2FA0A2201468146404669
:10097000FFF77BFF0444E5B3484600F079FF0246E9
:100980000B463046394600F035FE06460F464046D7
:100990002149FFF73DFF044400221E4B30463946F3
:1009A00000F0DCFF06460F4601F088FAB0F1000ABD
:1009B00007DA2D214046FFF73FFFCAF100018146CB
:1009C00002E051464FF000090A224046FFF74DFF72
:1009D00048440444504600F05BFF02460B46304654
:1009E000394600F007FE013D15F0FF0506460F46AB
:1009F000D2D12046BDE8F087CE250A08FFFFEF7F61
:100A0000D8250A08FFFFEF41D2250A08FFFFEFC1F2
:100A10000000E03F00002440D6250A0837B505460F
:100A20001446084600F046FFE4B2024600940B4626
:100A30002846FFF739FF03B030BD00231A46194698
:100A40004068FFF74BBE0000014A024B1A60704736
:100A500052260A0890000020024B1A68024B1A60C6
:100A6000704700BF00000020940000200021FFF725
:100A7000F9BD10B58368044613B1032201469847B7
:100A8000204610BD10B50446FFF7F3FF204610BD09
:100A9000034800238360034A034900F03DBC00BFC4
:100AA000980000206C000020850A0A0808B5144B45
:100AB00033B100F06BF903681B699847002816DC16
:100AC000104B33B100F024FA03681B6998470028E3
:100AD00010DC0D4B0BB1AFF300800C4B7BB100F081
:100AE00091F903681B699847002806DC08BDAFF33D
:100AF0000080E5E7AFF30080EBE7AFF3008008BDCF
:100B000000000000000000000000000000000000E5
:100B100008B5FFF7CBFFFFF7CBFC014B186008BD12
:100B20002C0500200248034A0349121A01F0E0BCD8
:100B3000004002400440024090280A0807B5002304
:100B400000931A466FF07701FFF79EFD03B05DF842
:100B500004FB000007B543880A2B08D0502B09D1AD
:100B6000094B1B683BB103B05DF804EB1847FFF776
:100B7000E5FF06E0002300931A466FF07701FFF7C8
:100B800083FD03B05DF804FBA800002038B5104CCD
:100B9000104D2368AB42104B0CBF012200221A708B
:100BA00002D0FFF7BFFF2560FFF772FC044601F09B
:100BB000B3FC0A4B13B12046AFF300800021074875
:100BC000FFF7BCFDBDE8384000210548FFF752BDE6
:100BD000004002401E1C279AAC00002000000000CC
:100BE000550B0A08704710B50446182100F0A2FB07
:100BF000204610BDF8B50F4600F10806051D00247B
:100C000016F8011D0A223846FFF72FFEAE420444B3
:100C100007D0002CF4D02E213846FFF70DFE0444F7
:100C2000EEE72046F8BD000010B50446044B112243
:100C300040F8043B002101F066FC204610BD00BFD7
:100C4000F0260A080346074A10B543F8042B01F1C1
:100C5000100251F8044B914243F8044BF9D10A7841
:100C60001A7010BDF0260A08024A41600260042290
:100C700002757047F0260A0810B59DF8084044EA4E
:100C8000032343EA024242EA0161042341600375FF
:100C900010BD000037B5044D05609DF81850009553
:100CA000FFF7EAFF03B030BDF0260A084174704731
:100CB000704708B50021007CFFF7ACFC30EA20004B
:100CC00028BF4FF0FF3008BD08B50121007CFFF7B9
:100CD000A1FC30EA200028BF4FF0FF3008BD08B566
:100CE000007CFFF78FFC20EAE07008BD08B5007CAF
:100CF000FFF780FC20EAE07008BD007CFFF79ABC9B
:100D000010B50446142100F015FB204610BD38B57F
:100D10000446007C0D46FFF775FC002801DC607C72
:100D200028B12946207CFFF77DFC20EAE07038BD21
:100D300010B50446002363604FF47A73A360054B3B
:100D4000084623600123217463741146FFF742FCB7
:100D5000204610BD04270A080022007CFFF742BC91
:100D600010B504461422002101F0CDFB054B2046AE
:100D70006360054BE36040F20113238181232382EA
:100D800010BD00BF35010020B400002030B50E4D6D
:100D900087B001A8FFF7E4FF296811F0010410D122
:100DA0002846FFF77EF960B101AA21460748FFF700
:100DB000BFFF2846FFF77AF9054A0649034800F0C5
:100DC000ABFA024807B030BDB00000203802002066
:100DD0006C000020B10C0A0810B504461422002152
:100DE00001F091FB054B20466360054BE36040F248
:100DF000011323818123238210BD00BFE80200205C
:100E00005002002010B50E4C86B001A8FFF7E4FF99
:100E10002368DB0710D42046FFF743F960B101AA2D
:100E200001210848FFF784FF2046FFF73FF9064AF3
:100E30000649044800F070FA024806B010BD00BF31
:100E40004C020020D40200206C000020B10C0A08E3
:100E5000FFF706BBFFF7FCBA70474174704708B54F
:100E6000007CFFF775FB20EAE07008BD08B5007C48
:100E7000FFF746FB20EAE07008BD08B5007CFFF7ED
:100E80004FFB30EA200028BF4FF0FF3008BD08B507
:100E9000007CFFF73DFB30EA200028BF4FF0FF3019
:100EA00008BD007CFFF744BB10B50446142100F0D8
:100EB00041FA204610BD70B5457C04460E4625B962
:100EC000007CFFF745FB002805DD3146207CBDE8AE
:100ED0007040FFF70DBB284670BD000010B50446FA
:100EE00008461146002262604FF47A72A260054AF9
:100EF00020742260012262741A46FFF7F1FA20463C
:100F000010BD00BF34270A08007CFFF719BB0000A2
:100F100038B50C4D296811F0010411D12846FFF7AE
:100F2000C0F868B1084A2146084B0948FFF7D6FFC8
:100F30002846FFF7BBF8074A0749054800F0ECF9D7
:100F4000034838BD840400208804002000040020E9
:100F5000EC0300206C000020590E0A087047F8B519
:100F6000064615460C468F18BC4206D0336814F866
:100F7000011B9B6830469847F6E72846F8BD0022DB
:100F8000007CFFF7EDBA0021007CFFF7F1BA0021E9
:100F9000007CFFF7F5BA0021007CFFF7F9BA0021C9
:100FA000007CFFF7FDBA10B50446142100F0C2F929
:100FB000204610BD10B50446002363604FF47A73D9
:100FC000A360044B2174084623601146FFF7F8FA2A
:100FD000204610BD64270A080021007CFFF7E8BA0C
:100FE000002211464068FFF771BBF0B5164689B084
:100FF00011220F460446002103A801F084FA30466E
:1010000001F0B2FA0025009581B27B6803AA304650
:10101000FFF718FB20B129462046FFF725FE03E025
:1010200003A92046FFF70EFE204609B0F0BD0022BE
:1010300011464068FFF76ABB002211464068FFF77F
:1010400075BB00224068FFF769BB002281F00101F7
:101050004068FFF753BB00231A4619464068FFF764
:1010600045BB002211464068FFF720BB0022022149
:101070004068FFF723BB00231A464068FFF70EBB0A
:10108000024B04225A60024A1A6070470C05002085
:101090008C270A0800231A464068FFF7FFBA00228F
:1010A00002214068FFF70ABB002211464068FFF7A3
:1010B000FDBA002211464068FFF708BB00231A461C
:1010C00019464068FFF70ABB00231A4619464068D4
:1010D000FFF70CBB002281F001014068FFF70EBB57
:1010E00000224068FFF71ABB002211464068FFF754
:1010F0001DBB002211464068FFF708BB70B51646BD
:101100008EB0044608A8FFF78FFD1122002103A826
:1011100001F0F9F9304601F027FA00250A4B009555
:1011200081B25B6803AA3046FFF78CFA20B12946EA
:101130002046FFF799FD03E003A92046FFF782FD53
:1011400020460EB070BD00BF0C050020024B034AC4
:101150001A6000225A60704714050020C0270A0850
:1011600010B50446806808B1FFF7B2F9204610BDFB
:1011700070B51A4E0446316811F001050FD13046A2
:10118000FEF78FFF58B129461548FFF7EFFA3046B2
:10119000FEF78CFF134A1449114800F0BDF81048BF
:1011A000FFF7F3FA28B1A4F10D03022B01D80020B8
:1011B00070BD00F08BF8FFF70FFF08B1012CF6D9D6
:1011C000FFF7A6FEFFF7A0FE18B1A4F11203012B52
:1011D000EDD9172C8CBF0020012070BD1C0500200C
:1011E000200500206C00002061110A08172838B57E
:1011F00004460D460AD8FF2908D0FFF7B9FF28B1E9
:1012000029462046BDE83840FFF702B938BD38B559
:1012100004460D46FFF704F9FF2810D0062804D82D
:101220004D2323FA00F0C30709D42046FFF7A0FF9F
:1012300028B129462046BDE83840FFF7F9B838BD47
:1012400010B50446FFF7ECF80438C0B2012808D9FD
:101250002046FFF78DFF20B12046BDE81040FFF784
:10126000EFB8002010BD000013B5084C00231A464B
:10127000194600932046FFF70DFD2046044A054914
:1012800002B0BDE8104000F047B800BF30050020B4
:101290006C000020E50B0A0870B5044614252A46A8
:1012A000094E002101F02FF9258020253146A56047
:1012B0002561284600F040F831466060284600F07D
:1012C0003BF8E060204670BDEC270A0830B50E4DB3
:1012D00087B0296811F0010413D12846FEF7E1FE1A
:1012E00078B101A8FFF7D8FF01AA21460748FFF708
:1012F00061FE2846FEF7DAFE054A0649034800F07B
:101300000BF8024807B030BD480500204C0500200E
:101310006C0000205D0F0A080B460146184601F0DC
:10132000D9B80000024B1868BFF35F8F704700BF49
:1013300060050020FEF7B3BE00F000B810B500282D
:1013400014BF044601242046FFF700FA20B9FFF736
:10135000E9FF08B18047F6E710BD0000184B1A6896
:10136000D1075CBF01221A60164B1A68D2075CBF16
:1013700001221A60144B1A68D0075CBF01221A6060
:10138000124B1A68D1075CBF01221A60104B1A6811
:10139000D2075CBF01221A600E4B1A68D0075CBFEF
:1013A00001221A600C4B1A68D1075CBF01221A6037
:1013B0000A4B1A68D2075CBF01221A60704700BF4F
:1013C000800500207C0500207805002074050020A1
:1013D000700500206C0500206805002064050020D1
:1013E000244B1A68D0075CBF01221A60224B1A688E
:1013F000D1075CBF01221A60204B1A68D2075CBF7C
:1014000001221A601E4B1A68D0075CBF01221A60C5
:101410001C4B1A68D1075CBF01221A601A4B1A686C
:10142000D2075CBF01221A60184B1A68D0075CBF54
:1014300001221A60164B1A68D1075CBF01221A609C
:10144000144B1A68D2075CBF01221A60124B1A684B
:10145000D0075CBF01221A60104B1A68D1075CBF2D
:1014600001221A600E4B1A68D2075CBF01221A6073
:10147000704700BFB0050020AC050020A805002083
:10148000A4050020A00500209C0500209805002050
:1014900094050020900500208C0500208805002080
:1014A00084050020244B1A68D0075CBF01221A6013
:1014B000224B1A68D1075CBF01221A60204B1A68C0
:1014C000D2075CBF01221A601E4B1A68D0075CBFAE
:1014D00001221A601C4B1A68D1075CBF01221A60F6
:1014E0001A4B1A68D2075CBF01221A60184B1A689F
:1014F000D0075CBF01221A60164B1A68D1075CBF87
:1015000001221A60144B1A68D2075CBF01221A60CC
:10151000124B1A68D0075CBF01221A60104B1A6880
:10152000D1075CBF01221A600E4B1A68D2075CBF5C
:1015300001221A60704700BFE0050020DC05002092
:10154000D8050020D4050020D0050020CC050020BF
:10155000C8050020C4050020C0050020BC050020EF
:10156000B8050020B4050020184B1A68D1075CBFED
:1015700001221A60164B1A68D2075CBF01221A605A
:10158000144B1A68D0075CBF01221A60124B1A680C
:10159000D1075CBF01221A60104B1A68D2075CBFEA
:1015A00001221A600E4B1A68D0075CBF01221A6034
:1015B0000C4B1A68D1075CBF01221A600A4B1A68EB
:1015C000D2075CBF01221A60704700BF00060020EE
:1015D000FC050020F8050020F4050020F00500209F
:1015E000EC050020E8050020E405002081F0004122
:1015F00002E000BF83F0004330B54FEA41044FEAF8
:10160000430594EA050F08BF90EA020F1FBF54EA92
:10161000000C55EA020C7FEA645C7FEA655C00F02E
:10162000E2804FEA5454D4EB5555B8BF6D420CDDFF
:101630002C4480EA020281EA030382EA000083EA82
:10164000010180EA020281EA0303362D88BF30BD22
:1016500011F0004F4FEA01314FF4801C4CEA113178
:1016600002D0404261EB410113F0004F4FEA0333D7
:101670004CEA133302D0524263EB430394EA050F62
:1016800000F0A780A4F10104D5F1200E0DDB02FAD1
:101690000EFC22FA05F2801841F1000103FA0EF265
:1016A000801843FA05F359410EE0A5F120050EF12B
:1016B000200E012A03FA0EFC28BF4CF0020C43FA5C
:1016C00005F3C01851EBE37101F0004507D54FF069
:1016D000000EDCF1000C7EEB00006EEB0101B1F5B9
:1016E000801F1BD3B1F5001F0CD349085FEA3000FF
:1016F0004FEA3C0C04F101044FEA445212F5800F0A
:1017000080F09A80BCF1004F08BF5FEA500C50F1A6
:10171000000041EB045141EA050130BD5FEA4C0C89
:10172000404141EB010111F4801FA4F10104E9D112
:1017300091F0000F04BF01460020B1FA81F308BF09
:101740002033A3F10B03B3F120020CDA0C3208DDD5
:1017500002F1140CC2F10C0201FA0CF021FA02F1B0
:101760000CE002F11402D8BFC2F1200C01FA02F120
:1017700020FA0CFCDCBF41EA0C019040E41AA2BF45
:1017800001EB0451294330BD6FEA04041F3C1CDA0D
:101790000C340EDC04F11404C4F1200220FA04F02D
:1017A00001FA02F340EA030021FA04F345EA0301D7
:1017B00030BDC4F10C04C4F1200220FA02F001FA99
:1017C00004F340EA0300294630BD21FA04F029461B
:1017D00030BD94F0000F83F4801306BF81F48011B4
:1017E0000134013D4EE77FEA645C18BF7FEA655C27
:1017F00029D094EA050F08BF90EA020F05D054EAF9
:10180000000C04BF1946104630BD91EA030F1EBFFD
:101810000021002030BD5FEA545C05D14000494101
:1018200028BF41F0004130BD14F580043CBF01F5F4
:10183000801130BD01F0004545F0FE4141F47001DA
:101840004FF0000030BD7FEA645C1ABF19461046B5
:101850007FEA655C1CBF0B46024650EA013406BFB6
:1018600052EA033591EA030F41F4002130BD00BF75
:1018700090F0000F04BF0021704730B54FF4806432
:1018800004F132044FF000054FF0000150E700BFB3
:1018900090F0000F04BF0021704730B54FF4806412
:1018A00004F1320410F0004548BF40424FF00001FF
:1018B0003EE700BF42004FEAE2014FEA31014FEA42
:1018C00002701FBF12F07F4393F07F4F81F0605191
:1018D000704792F0000F14BF93F07F4F704730B500
:1018E0004FF4607401F0004521F0004120E700BF93
:1018F00050EA010208BF704730B54FF000050AE01A
:1019000050EA010208BF704730B511F0004502D51A
:10191000404261EB41014FF4806404F132045FEA1C
:10192000915C3FF4DCAE4FF003025FEADC0C18BFC1
:1019300003325FEADC0C18BF033202EBDC02C2F1B7
:10194000200300FA03FC20FA02F001FA03FE40EA49
:101950000E0021FA02F11444C1E600BF70B54FF049
:10196000FF0C4CF4E06C1CEA11541DBF1CEA13552B
:1019700094EA0C0F95EA0C0F00F0DEF82C4481EA93
:10198000030621EA4C5123EA4C5350EA013518BFB3
:1019900052EA033541F4801143F4801338D0A0FBA0
:1019A00002CE4FF00005E1FB02E506F00042E0FB4D
:1019B00003E54FF00006E1FB03569CF0000F18BF53
:1019C0004EF0010EA4F1FF04B6F5007F64F54074FB
:1019D00004D25FEA4E0E6D4146EB060642EAC6218E
:1019E00041EA55514FEAC52040EA5E504FEACE2EFB
:1019F000B4F1FD0C88BFBCF5E06F1ED8BEF1004FFE
:101A000008BF5FEA500E50F1000041EB045170BD79
:101A100006F0004646EA010140EA020081EA0301BD
:101A2000B4EB5C04C2BFD4EB0C0541EA045170BDB9
:101A300041F480114FF0000E013C00F3AB8014F133
:101A4000360FDEBF002001F0004170BDC4F100047C
:101A5000203C35DA0C341BDC04F11404C4F12005FD
:101A600000FA05F320FA04F001FA05F240EA020058
:101A700001F0004221F0004110EBD37021FA04F68E
:101A800042EB06015EEA430E08BF20EAD37070BD48
:101A9000C4F10C04C4F1200500FA04F320FA05F0A7
:101AA00001FA04F240EA020001F0004110EBD370A9
:101AB00041F100015EEA430E08BF20EAD37070BD19
:101AC000C4F1200500FA05F24EEA020E20FA04F3F2
:101AD00001FA05F243EA020321FA04F001F00041A1
:101AE00021FA04F220EA020000EBD3705EEA430E12
:101AF00008BF20EAD37070BD94F0000F0FD101F041
:101B00000046400041EB010111F4801F08BF013C79
:101B1000F7D041EA060195F0000F18BF704703F0B7
:101B20000046520043EB030313F4801F08BF013D3E
:101B3000F7D043EA0603704794EA0C0F0CEA1355FA
:101B400018BF95EA0C0F0CD050EA410618BF52EAB4
:101B50004306D1D181EA030101F000414FF00000BA
:101B600070BD50EA410606BF1046194652EA4306C8
:101B700019D094EA0C0F02D150EA013613D195EA3C
:101B80000C0F05D152EA03361CBF104619460AD184
:101B900081EA030101F0004141F0FE4141F470018E
:101BA0004FF0000070BD41F0FE4141F4780170BD7E
:101BB00070B54FF0FF0C4CF4E06C1CEA11541DBFE3
:101BC0001CEA135594EA0C0F95EA0C0F00F0A7F8E5
:101BD000A4EB050481EA030E52EA03354FEA013112
:101BE00000F088804FEA03334FF0805545EA131325
:101BF00043EA12634FEA022245EA111545EA1065ED
:101C00004FEA00260EF000419D4208BF964244F183
:101C1000FD0404F5407402D25B084FEA3202B61AA2
:101C200065EB03055B084FEA32024FF480104FF476
:101C3000002CB6EB020E75EB030E22BFB61A7546EA
:101C400040EA0C005B084FEA3202B6EB020E75EB7D
:101C5000030E22BFB61A754640EA5C005B084FEAE5
:101C60003202B6EB020E75EB030E22BFB61A7546B2
:101C700040EA9C005B084FEA3202B6EB020E75EBBD
:101C8000030E22BFB61A754640EADC0055EA060E7E
:101C900018D04FEA051545EA16754FEA06164FEAC1
:101CA000C30343EA52734FEAC2025FEA1C1CC0D16D
:101CB00011F4801F0BD141EA00014FF000004FF0FA
:101CC000004CB6E711F4801F04BF01430020B4F1BB
:101CD000FD0C88BFBCF5E06F3FF6AFAEB5EB030C73
:101CE00004BFB6EB020C5FEA500C50F1000041EB70
:101CF000045170BD0EF0004E4EEA113114EB5C043D
:101D0000C2BFD4EB0C0541EA045170BD41F480110F
:101D10004FF0000E013C90E645EA060E8DE60CEA17
:101D2000135594EA0C0F08BF95EA0C0F3FF43BAF34
:101D300094EA0C0F0AD150EA01347FF434AF95EAEB
:101D40000C0F7FF425AF104619462CE795EA0C0FCF
:101D500006D152EA03353FF4FDAE1046194622E79C
:101D600050EA410618BF52EA43067FF4C5AE50EA76
:101D700041047FF40DAF52EA43057FF4EBAE12E766
:101D80004FF0FF3C06E000BF4FF0010C02E000BF47
:101D90004FF0010C4DF804CD4FEA410C7FEA6C5C2A
:101DA0004FEA430C18BF7FEA6C5C1BD001B050EACD
:101DB000410C0CBF52EA430C91EA030F02BF90EAB8
:101DC000020F0020704710F1000F91EA030F58BF77
:101DD000994208BF90422CBFD8176FEAE37040F0D9
:101DE000010070474FEA410C7FEA6C5C02D150EA77
:101DF000013C07D14FEA430C7FEA6C5CD6D152EA32
:101E0000033CD3D05DF8040B704700BF84461046F6
:101E100062468C461946634600E000BF01B5FFF7F5
:101E2000B7FF002848BF10F1000F01BD4DF808EDC5
:101E3000FFF7F4FF0CBF012000205DF808FB00BF96
:101E40004DF808EDFFF7EAFF34BF012000205DF8F0
:101E500008FB00BF4DF808EDFFF7E0FF94BF01203D
:101E600000205DF808FB00BF4DF808EDFFF7CEFF3E
:101E700094BF012000205DF808FB00BF4DF808ED7D
:101E8000FFF7C4FF34BF012000205DF808FB00BF4E
:101E90004FEA410C7FEA6C5C02D150EA013C0AD166
:101EA0004FEA430C7FEA6C5C02D152EA033C02D158
:101EB0004FF0000070474FF0010070474FEA4102B9
:101EC00012F5001215D211D56FF47873B3EB62528C
:101ED00012D94FEAC12343F0004343EA505311F0B3
:101EE000004F23FA02F018BF404270474FF0000045
:101EF000704750EA013005D111F0004008BF6FF083
:101F0000004070474FF00000704700BF4A0011D2F8
:101F100012F5001211D20DD56FF47873B3EB625243
:101F20000ED44FEAC12343F0004343EA505323FA4F
:101F300002F070474FF00000704750EA013002D1C4
:101F40004FF0FF3070474FF0000070474FEA4102FA
:101F5000B2F1E04324BFB3F5001CDCF1FE5C0DD907
:101F600001F0004C4FEAC0024CEA5070B2F1004F51
:101F700040EB830008BF20F00100704711F0804F54
:101F800021D113F13872BCBF01F00040704741F419
:101F900080114FEA5252C2F11802C2F1200C10FA1D
:101FA0000CF320FA02F018BF40F001004FEAC12301
:101FB0004FEAD32303FA0CFC40EA0C0023FA02F3A5
:101FC0004FEA4303CCE77FEA625307D150EA01337B
:101FD0001EBF4FF0FE4040F44000704701F000404B
:101FE00040F0FE4040F40000704700BF80F0004029
:101FF00002E000BF81F0004142001FBF5FEA4103E1
:1020000092EA030F7FEA226C7FEA236C6AD04FEAE0
:102010001262D2EB1363C1BFD21841404840414025
:10202000B8BF5B42192B88BF704710F0004F40F4D7
:10203000000020F07F4018BF404211F0004F41F4F3
:10204000000121F07F4118BF494292EA030F3FD0BF
:10205000A2F1010241FA03FC10EB0C00C3F12003D2
:1020600001FA03F100F0004302D5494260EB400061
:10207000B0F5000F13D3B0F1807F06D340084FEACC
:10208000310102F10102FE2A51D2B1F1004F40EBC1
:10209000C25008BF20F0010040EA03007047490029
:1020A00040EB000010F4000FA2F10102EDD1B0FAF4
:1020B00080FCACF1080CB2EB0C0200FA0CF0AABFE9
:1020C00000EBC25052421843BCBFD0401843704787
:1020D00092F0000F81F4000106BF80F4000001328D
:1020E000013BB5E74FEA41037FEA226C18BF7FEA64
:1020F000236C21D092EA030F04D092F0000F08BFA6
:102100000846704790EA010F1CBF0020704712F08C
:102110007F4F04D1400028BF40F00040704712F1CB
:1021200000723CBF00F50000704700F0004343F030
:10213000FE4040F4000070477FEA226216BF084666
:102140007FEA23630146420206BF5FEA412390EA29
:10215000010F40F4800070474FF0000304E000BF1F
:1021600010F0004348BF40425FEA000C08BF7047D0
:1021700043F0964301464FF000001CE050EA010294
:1021800008BF70474FF000030AE000BF50EA0102A9
:1021900008BF704711F0004302D5404261EB410196
:1021A0005FEA010C02BF84460146002043F0B643BB
:1021B00008BFA3F18053A3F50003BCFA8CF2083AE0
:1021C000A3EBC25310DB01FA02FC634400FA02FCE9
:1021D000C2F12002BCF1004F20FA02F243EB0200F0
:1021E00008BF20F00100704702F1200201FA02FC52
:1021F000C2F1200250EA4C0021FA02F243EB020045
:1022000008BF20EADC7070474FF0FF0C1CEAD05288
:102210001EBF1CEAD15392EA0C0F93EA0C0F6FD049
:102220001A4480EA010C400218BF5FEA41211ED027
:102230004FF0006343EA501043EA5111A0FB013113
:102240000CF00040B1F5000F3EBF490041EAD371E8
:102250005B0040EA010062F17F02FD2A1DD8B3F164
:10226000004F40EBC25008BF20F00100704790F0D3
:10227000000F0CF0004C08BF49024CEA502040EA25
:1022800051207F3AC2BFD2F1FF0340EAC2507047EB
:1022900040F400004FF00003013A5DDC12F1190F29
:1022A000DCBF00F000407047C2F10002410021FA9B
:1022B00002F1C2F1200200FA02FC5FEA310040F1B3
:1022C000000053EA4C0308BF20EADC70704792F02C
:1022D000000F00F0004C02BF400010F4000F013A64
:1022E000F9D040EA0C0093F0000F01F0004C02BF5F
:1022F000490011F4000F013BF9D041EA0C018FE7CE
:102300000CEAD15392EA0C0F18BF93EA0C0F0AD0D3
:1023100030F0004C18BF31F0004CD8D180EA0100F9
:1023200000F00040704790F0000F17BF90F0004F92
:10233000084691F0000F91F0004F14D092EA0C0F74
:1023400001D142020FD193EA0C0F03D14B0218BF07
:10235000084608D180EA010000F0004040F0FE404D
:1023600040F40000704740F0FE4040F440007047E9
:102370004FF0FF0C1CEAD0521EBF1CEAD15392EA68
:102380000C0F93EA0C0F69D0A2EB030280EA010C58
:1023900049024FEA402037D04FF0805343EA1111F1
:1023A00043EA10130CF000408B4238BF5B0042F14F
:1023B0007D024FF4000C8B4224BF5B1A40EA0C00F4
:1023C000B3EB510F24BFA3EB510340EA5C00B3EB26
:1023D000910F24BFA3EB910340EA9C00B3EBD10F14
:1023E00024BFA3EBD10340EADC001B0118BF5FEA66
:1023F0001C1CE0D1FD2A3FF650AF8B4240EBC2508F
:1024000008BF20F0010070470CF0004C4CEA50204F
:102410007F32C2BFD2F1FF0340EAC250704740F49E
:1024200000004FF00003013A37E792F0000F00F090
:10243000004C02BF400010F4000F013AF9D040EA0E
:102440000C0093F0000F01F0004C02BF490011F4A2
:10245000000F013BF9D041EA0C0195E70CEAD1539A
:1024600092EA0C0F08D142027FF47DAF93EA0C0F81
:102470007FF470AF084676E793EA0C0F04D14B0265
:102480003FF44CAF08466EE730F0004C18BF31F017
:10249000004CCAD130F000427FF45CAF31F0004311
:1024A0007FF43CAF5FE700BF4FEA40024FEA4103D1
:1024B0007FEA226C02D15FEA402C08D17FEA236CCC
:1024C00002D15FEA412C02D14FF0000070474FF07B
:1024D0000100704710B5054C13462CB10A46014661
:1024E0000220AFF3008010BD204610BD00000000A8
:1024F00010B5431E0A44914204D011F8014B03F871
:10250000014FF8E710BD03460244934202D003F89E
:10251000011BFAE77047000038B5124B05461C68EE
:10252000A36BD3B91820FEF711F943F20E33A06361
:1025300003804AF6CD33438041F2342383804EF248
:102540006D63C3804DF6EC630381052343810B2348
:10255000838101220023C0E90423A36B00221D61B3
:102560005A6138BD68000020034613F8012B002A89
:10257000FBD1181A0138704721000A0861000A08C7
:102580008D000A0891000A08000000004661696C8D
:10259000656420746F20726561642066726F6D20BF
:1025A0004448542073656E736F72210048756D69DD
:1025B000646974793A20002025090054656D7065BE
:1025C0007261747572653A2000202A4320006E61A2
:1025D0006E006F7666002E00696E6600626175643B
:1025E0000053657269616C005553425365726961AD
:1025F0006C31007479706500706172616D00636D9B
:102600006400696400686E64007374726D006669CA
:102610006C74006C766C0061646448616E646C6517
:10262000720072656D6F766548616E646C657200EC
:10263000656E756D48616E646C657273004A534FC8
:102640004E53747265616D4C6F6748616E646C6562
:10265000720061707000253031307520005D2000FF
:102660002564002C200028293A2000205B00636F9D
:102670006465203D200025690064657461696C73A0
:10268000203D20000D0A006C6E00666E00636F64D2
:10269000650064657461696C006E6F6E65007472CC
:1026A00061636500696E666F007761726E006572C6
:1026B000726F720070616E696300616C6C005A0029
:1026C000252B3033643A253032750025592D256D80
:1026D0002D25645425483A254D3A2553257A006125
:1026E000736374696D650000000000000000000065
:1026F000F50B0A08E50B0A08E70B0A0800000000C2
:1027000000000000B10C0A08010D0A080F0D0A08AC
:10271000E5070A08ED0C0A08B30C0A08C90C0A08F8
:10272000FB0C0A08DF0C0A08AD0C0A0800000000C8
:1027300000000000590E0A08A90E0A08B70E0A0880
:10274000E5070A086D0E0A088F0E0A087B0E0A08B4
:10275000A30E0A085B0E0A085F0E0A0800000000BC
:10276000000000005D0F0A08A70F0A087F0F0A0883
:102770005F0F0A08870F0A088F0F0A08970F0A08C9
:102780009F0F0A08000000000000000077100A08F0
:102790006D100A0863100A08E10F0A083B0A0A08CC
:1027A00057100A084B100A0843100A0839100A0883
:1027B0002F100A08EB0F0A080000000000000000BC
:1027C00095100A089F100A08A9100A08B3100A08F1
:1027D000BD100A08C9100A08D5100A08E1100A0835
:1027E000E9100A08F3100A08FD100A0800000000AA
:1027F00000000000000000000000000000000000D9
:1028000000000000000000000000000000000000C8
:1028100000000000000000000000000000000000B8
:1028200000000000000000000000000000000000A8
:102830000000000000000000000000000000000098
:102840000000000000000000000000000000000088
:102850004300000069010A0885010A08FD030A080F
:10286000B1070A08490A0A08590A0A08910A0A0817
:1028700081100A084D110A0869120A085D130A0836
:10288000E1130A08A5140A0869150A0800000000E7
:042890000000000044
:10289400DF260A08000E270700000000F0270A08B8
:1028A40010280A0830280A08000000000000000070
:1028B400000000000000000050280A08000000008A
:1028C4000000000000000000000000000000000004
:1028D40000000000000000000000000000000000F4
:1028E40000000000000000000000000000000000E4
:0C28F400000000000000000008000020B0
:10290000FFFFFFFF00000102030405060708090A94
:102910000B0C0D0E0F101112131415161718191A8F
:082920001B1C1D1E1F202800D6
:042928007856341297
:04000005080A0020C5
:00000001FF
